:100000000C942A000C94C0040C94E9040C9412057E
:100010000C9457060C942E060C9447000C9405067D
:100020000C9447000C94DC050C94B3050C948A05E1
:100030000C9447000C9447000C9447000C94470024
:100040000C9447000C9447000C9447000C94470014
:100050000C94470011241FBECFE5D8E0DEBFCDBF12
:1000600014E0A0E6B0E0E0E4F5E102C005900D92F6
:10007000A035B107D9F724E0A0E5B4E001C01D9296
:10008000AC36B207E1F70E94E1020C949E0A0C9490
:100090000000809152048F5F80935204843191F468
:1000A00080915004833019F41092500403C08F5F84
:1000B0008093500480915104813011F410925104C6
:1000C00010925204089563E674E083E790E00E9482
:1000D000910280936204813049F485E790E09F9318
:1000E0008F930E94C0070F900F900895823049F4BB
:1000F0008DE990E09F938F930E94C0070F900F901F
:10010000089580916304813009F041C08BE49DE142
:100110000197F1F700C0000063E674E083E790E028
:100120000E94910280936204813049F485E790E057
:100130009F938F930E94C0070F900F900895823075
:1001400049F48DE990E09F938F930E94C0070F9030
:100150000F900895809163048130C9F48091510417
:10016000811115C080915004811104C081E08093F9
:1001700050040AC0823019F41092520405C0833032
:1001800019F481E08093500481E080935104089534
:1001900083E790E00E94810280936204813049F4F9
:1001A00085E790E09F938F930E94C0070F900F9078
:1001B0000895823049F48DE990E09F938F930E94D7
:1001C000C0070F900F90089581E790E00E943B05D3
:1001D00080936504813049F486EC90E09F938F937F
:1001E0000E94C0070F900F900895823049F482EF6B
:1001F00090E09F938F930E94C0070F900F900895F7
:1002000063E670E080E00E947005809365048130B1
:1002100049F486EC90E09F938F930E94C0070F9063
:100220000F900895789483E594E00E94A202809351
:100230006404813049F489E291E09F938F930E9496
:10024000C0070F900F900895823049F489E591E03E
:100250009F938F930E94C0070F900F90089588E698
:1002600090E00E94A20280936404813049F48AE8FD
:1002700091E09F938F930E94C0070F900F90089575
:10028000823049F48BEB91E09F938F930E94C007DB
:100290000F900F90089586E690E00E94A202809150
:1002A0006404813049F48DEE91E09F938F930E9416
:1002B000C0070F900F900895823049F48BE192E0CF
:1002C0009F938F930E94C0070F900F90089584E62C
:1002D00090E00E94A20280916404813049F48AE493
:1002E00092E09F938F930E94C0070F900F90089504
:1002F000823049F481E892E09F938F930E94C00777
:100300000F900F90089582E690E00E94A2028091E3
:100310006404813049F489EB92E09F938F930E94AB
:10032000C0070F900F900895823049F481EF92E05A
:100330009F938F930E94C0070F900F90089580E6BF
:1003400090E00E94A20280916404813049F48AE224
:1003500093E09F938F930E94C0070F900F90089592
:10036000823049F48FE593E09F938F930E94C007FA
:100370000F900F9008958AE690E00E948006809387
:100380006104813049F485E993E09F938F930E9443
:10039000C0070F900F900895833049F484EB93E0E9
:1003A0009F938F930E94C0070F900F900895823003
:1003B00049F485ED93E09F938F930E94C0070F90BF
:1003C0000F900895843049F48BEF93E09F938F93BF
:1003D0000E94C0070F900F900895853049F486E27F
:1003E00094E09F938F930E94C0070F900F90089501
:1003F00069E470E080E00E94A80780936104813086
:1004000041F485E993E09F938F930E94C0070F907A
:100410000F90089580915004813001F130F08230C6
:10042000D1F1833009F450C0089583E594E00E942F
:10043000C20288E690E00E94B20286E690E00E9446
:10044000B20284E690E00E94B20282E690E00E944E
:10045000B20280E690E00E94C202089583E594E033
:100460000E94B20286E690E00E94B202809152049D
:1004700080FD08C088E690E00E94D20282E690E00B
:100480000E94D20284E690E00E94B20280E690E0F0
:100490000E94B202089583E594E00E94B20288E6C9
:1004A00090E00E94B20286E690E00E94C20284E6DA
:1004B00090E00E94C20282E690E00E94B20280E6D2
:1004C00090E00E94B202089583E594E00E94B20297
:1004D00086E690E00E94B2028091520480FD08C03E
:1004E00088E690E00E94D20282E690E00E94D2026A
:1004F00084E690E00E94B20280E690E00E94B202A0
:100500000895FC016181683040F48081843038F4C2
:1005100040E00E94E60280E0089581E0089582E0D4
:100520000895FC012181283048F48081843040F412
:10053000AB01622F0E94000480E0089581E00895DD
:1005400082E00895FC016181683040F4808184304C
:1005500038F441E00E94E60280E0089581E00895C9
:1005600082E00895FC016181683040F4808184302C
:1005700038F440E00E94730380E0089581E008951C
:1005800082E00895FC016181683040F4808184300C
:1005900038F441E00E94730380E0089581E00895FB
:1005A00082E00895FC016181683038F480818430F4
:1005B00030F40E94820480E0089581E0089582E092
:1005C00008950E94C8000E940A02FDCF683008F01A
:1005D0007EC0813029F138F0823009F43EC083308A
:1005E00009F458C076C0413061F42AB381E090E04C
:1005F00002C0880F991F6A95E2F7822B8ABB80E0C0
:100600000895411168C02AB381E090E002C0880FCC
:10061000991F6A95E2F7809582238ABB80E008954E
:10062000413061F427B381E090E002C0880F991F48
:100630006A95E2F7822B87BB80E0089541114DC097
:1006400027B381E090E002C0880F991F6A95E2F716
:100650008095822387BB80E00895413061F424B304
:1006600081E090E002C0880F991F6A95E2F7822B23
:1006700084BB80E00895411132C024B381E090E052
:1006800002C0880F991F6A95E2F78095822384BB88
:1006900080E00895413061F421B381E090E002C030
:1006A000880F991F6A95E2F7822B81BB80E008953D
:1006B000411117C021B381E090E002C0880F991F5B
:1006C0006A95E2F78095822381BB80E0089582E0FD
:1006D000089581E0089583E0089583E0089583E01C
:1006E000089583E00895683008F07EC0813029F1D4
:1006F00038F0823009F43EC0833009F458C076C027
:10070000413061F42BB381E090E002C0880F991F63
:100710006A95E2F7822B8BBB80E00895411168C097
:100720002BB381E090E002C0880F991F6A95E2F731
:10073000809582238BBB80E00895413061F428B31B
:1007400081E090E002C0880F991F6A95E2F7822B42
:1007500088BB80E0089541114DC028B381E090E04E
:1007600002C0880F991F6A95E2F78095822388BBA3
:1007700080E00895413061F425B381E090E002C04B
:10078000880F991F6A95E2F7822B85BB80E0089558
:10079000411132C025B381E090E002C0880F991F5B
:1007A0006A95E2F78095822385BB80E00895413009
:1007B00061F422B381E090E002C0880F991F6A952E
:1007C000E2F7822B82BB80E00895411117C022B36B
:1007D00081E090E002C0880F991F6A95E2F780954A
:1007E000822382BB80E0089582E0089581E008952D
:1007F00085E0089585E0089585E0089585E00895F1
:10080000FA011082683008F071C0813009F130F0CF
:100810008230C1F1833009F44FC06AC089B390E0DF
:10082000062E02C0959587950A94E2F780FF05C0D1
:1008300081E0FA01808380E0089589B390E002C0EE
:10084000959587956A95E2F780FF54C085E00895F5
:1008500086B390E0062E02C0959587950A94E2F73C
:1008600080FF05C081E0FA01808380E0089586B3AF
:1008700090E002C0959587956A95E2F780FF3CC0AD
:1008800085E0089583B390E0062E02C09595879584
:100890000A94E2F780FF05C081E0FA01808380E0DE
:1008A000089583B390E002C0959587956A95E2F725
:1008B00080FF24C085E0089580B390E0062E02C03A
:1008C000959587950A94E2F780FF05C081E0FA01CB
:1008D000808380E0089580B390E002C0959587956D
:1008E0006A95E2F780FF0CC085E0089582E00895E4
:1008F00081E0089580E0089580E0089580E0089503
:1009000080E008956830C0F5813091F028F08230A1
:10091000D9F0833029F132C02BB381E090E002C0DE
:10092000880F991F6A95E2F782278BBB80E00895B4
:1009300028B381E090E002C0880F991F6A95E2F722
:10094000822788BB80E0089525B381E090E002C053
:10095000880F991F6A95E2F7822785BB80E008958A
:1009600022B381E090E002C0880F991F6A95E2F7F8
:10097000822782BB80E0089582E0089581E0089597
:100980001F920F920FB60F9211242F933F934F9304
:100990005F936F937F938F939F93AF93BF93EF93E7
:1009A000FF93E0915904F0915A04309709F00995AA
:1009B000FF91EF91BF91AF919F918F917F916F9137
:1009C0005F914F913F912F910F900FBE0F901F900D
:1009D00018951F920F920FB60F9211242F933F93E9
:1009E0004F935F936F937F938F939F93AF93BF9337
:1009F000EF93FF93E0915704F0915804309709F07A
:100A00000995FF91EF91BF91AF919F918F917F9148
:100A10006F915F914F913F912F910F900FBE0F906B
:100A20001F9018951F920F920FB60F9211242F93BB
:100A30003F934F935F936F937F938F939F93AF9366
:100A4000BF93EF93FF93E0915504F09156043097D4
:100A500009F00995FF91EF91BF91AF919F918F910F
:100A60007F916F915F914F913F912F910F900FBEAA
:100A70000F901F901895FC019081913081F018F033
:100A80009230C9F025C08BB780648BBF81818430E0
:100A900008F595B79C7F892B85BF80E008958BB7BB
:100AA00080688BBF81818430B8F495B7937F892BA0
:100AB00085BF80E008958BB780628BBF81818430D1
:100AC00068F494B79F7B8170892B84BF80E0089580
:100AD00081E0089582E0089582E0089582E008951B
:100AE000813051F018F0823069F012C070935A04CE
:100AF0006093590480E008957093580460935704FC
:100B000080E00895709356046093550480E0089542
:100B100081E008951F920F920FB60F9211242F9328
:100B20003F934F935F936F937F938F939F93AF9375
:100B3000BF93EF93FF93E0915F04F09160043097CF
:100B400009F00995FF91EF91BF91AF919F918F911E
:100B50007F916F915F914F913F912F910F900FBEB9
:100B60000F901F9018951F920F920FB60F9211249D
:100B70002F933F934F935F936F937F938F939F93A5
:100B8000AF93BF93EF93FF93E0915F04F091600404
:100B9000309709F00995FF91EF91BF91AF919F9127
:100BA0008F917F916F915F914F913F912F910F9016
:100BB0000FBE0F901F9018951F920F920FB60F92B5
:100BC00011242F933F934F935F936F937F938F9352
:100BD0009F93AF93BF93EF93FF93E0915D04F091E8
:100BE0005E04309709F00995FF91EF91BF91AF91A5
:100BF0009F918F917F916F915F914F913F912F9135
:100C00000F900FBE0F901F9018951F920F920FB666
:100C10000F9211242F933F934F935F936F937F9382
:100C20008F939F93AF93BF93EF93FF93E0915D04F6
:100C3000F0915E04309709F00995FF91EF91BF9113
:100C4000AF919F918F917F916F915F914F913F9164
:100C50002F910F900FBE0F901F9018951F920F921B
:100C60000FB60F9211242F933F934F935F936F937F
:100C70007F938F939F93AF93BF93EF93FF93E091F5
:100C80005B04F0915C04309709F00995FF91EF91B6
:100C9000BF91AF919F918F917F916F915F914F9194
:100CA0003F912F910F900FBE0F901F9018951F929C
:100CB0000F920FB60F9211242F933F934F935F9390
:100CC0006F937F938F939F93AF93BF93EF93FF9314
:100CD000E0915B04F0915C04309709F00995FF9175
:100CE000EF91BF91AF919F918F917F916F915F91A4
:100CF0004F913F912F910F900FBE0F901F9018951D
:100D0000FC018081813009F459C020F0823009F45F
:100D1000C3C008C18181863008F006C193B7987FAF
:100D2000892B83BF828193818F3F910511F008F059
:100D3000FDC082BF8481813091F018F0823031F1A2
:100D4000F7C083B7806883BF83B78F7B83BF83B7C8
:100D5000877F83BF89B7816089BF80E0089583B7AB
:100D6000806883BF83B78F7B83BF83B7886083BF6F
:100D700089B7826089BF828193818F3F910511F08D
:100D800008F0D8C085818CBF80E0089583B78F7745
:100D900083BF83B7806483BF83B7886083BF83B713
:100DA0008F7C806283BF828193818F3F910511F098
:100DB00008F0C2C085818CBF80E0089581818630B3
:100DC00008F0BCC09EB5987F892B8EBD9EB58281F0
:100DD000907F8F70892B8CBD9EB582819F70807FA4
:100DE000892B8DBD84818130D9F018F08230D9F102
:100DF000A7C08FB588608FBD8FB584608FBD8FB55C
:100E00008E7F8FBD8FB58D7F8FBD8FB5877F8FBD57
:100E10008FB58F7E8FBD89B7846089BF80E00895CC
:100E20008FB588608FBD8FB584608FBD8FB58E7F85
:100E30008FBD8FB58D7F8FBD8FB588608FBD8FB50E
:100E40008F7E8FBD89B7806189BF9EB58581907F78
:100E50008F70892B8ABD9EB585819F70807F892B7D
:100E60008BBD80E008958FB5877F8FBD8FB5816082
:100E70008FBD8FB582608FBD8FB588608FBD8FB5F8
:100E800080618FBD8FB58F7380688FBD858196819E
:100E90009BBD8ABD80E008958181863008F052C0F4
:100EA00095B5987F892B85BD828193818F3F910570
:100EB00011F008F049C084BD8481813091F018F0B0
:100EC0008230F9F043C085B5806885BD85B58F7BDC
:100ED00085BD85B5877F85BD89B7806489BF80E082
:100EE000089585B5806885BD85B58F7B85BD83B741
:100EF000886083BF89B7806889BF858183BD80E0B2
:100F0000089585B58F7785BD83B7806483BF83B728
:100F1000886083BF85B58F7C806285BD858183BDF8
:100F200080E0089581E0089582E0089584E00895C6
:100F300083E0089585E0089585E0089582E00895AE
:100F400083E0089582E0089584E0089583E00895A1
:100F5000813049F018F0823059F00FC0709360046E
:100F600060935F040CC070935E0460935D0407C0DF
:100F700070935C0460935B0402C081E0089508955F
:100F8000A0E0B0E0E6ECF7E00C94770AAE014B5F2E
:100F90005F4FFA0161917191AF0180916804909166
:100FA00069040E94D607E2E00C94930AABE0B0E03B
:100FB000ECEDF7E00C94670A6C017B018A01FC01FF
:100FC00017821682838181FFCCC1CE0101963C013C
:100FD000F6019381F70193FD859193FF81917F0144
:100FE000882309F4BAC1853239F493FD859193FFC2
:100FF00081917F01853229F4B60190E00E94CD09EC
:10100000E7CF912C212C312CFFE1F315D8F08B3256
:1010100079F038F4803279F08332A1F4232D206105
:101020001DC08D3261F0803369F4232D216016C01C
:10103000832D8260382EE32DE4603E2E2AC0F32DEE
:10104000F8601DC037FC2DC020ED280F2A3040F07D
:101050008E32B9F436FC81C1232D2064322E19C0A2
:1010600036FE06C08AE0989E200D1124922E11C0F3
:10107000EAE02E9E200D1124222EF32DF0623F2E49
:1010800008C08C3621F4832D8068382E02C0883643
:1010900041F4F70193FD859193FF81917F018111C7
:1010A000B3CF982F9F7D9554933028F40C5F1F4F3A
:1010B0009FE399830DC0833631F0833771F0833518
:1010C00009F059C021C0F801808189830E5F1F4F4C
:1010D00088248394912C530113C02801F2E04F0E11
:1010E000511CF801A080B18036FE03C0692D70E06C
:1010F00002C06FEF7FEFC5010E94C2094C0182015F
:10110000F32DFF773F2E16C0280122E0420E511C1E
:10111000F801A080B18036FE03C0692D70E002C0E6
:101120006FEF7FEFC5010E94B7094C01F32DF06806
:101130003F2E820133FC1BC0822D90E08816990659
:10114000B0F4B60180E290E00E94CD092A94F4CF79
:10115000F50137FC859137FE81915F01B60190E082
:101160000E94CD0921102A9421E0821A910881144D
:10117000910471F7E8C0843611F0893641F5F80121
:1011800037FE07C060817181828193810C5F1F4FA0
:1011900008C060817181072E000C880B990B0E5FCF
:1011A0001F4FF32DFF763F2E97FF09C09095809536
:1011B000709561957F4F8F4F9F4FF0683F2E2AE0CB
:1011C00030E0A3010E94090A882E861845C08537A1
:1011D00031F4232D2F7EB22E2AE030E025C0932D4E
:1011E000997FB92E8F36C1F018F4883579F0B5C0E3
:1011F000803719F0883721F0B0C0E92FE061BE2EAA
:10120000B4FE0DC0FB2DF460BF2E09C034FE0AC031
:10121000292F2660B22E06C028E030E005C020E16C
:1012200030E002C020E132E0F801B7FE07C0608183
:101230007181828193810C5F1F4F06C06081718133
:1012400080E090E00E5F1F4FA3010E94090A882EE4
:101250008618FB2DFF773F2E36FE0DC0232D2E7FE7
:10126000A22E891458F434FE0BC032FC09C0832D21
:101270008E7EA82E05C0B82CA32C03C0B82C01C0AC
:10128000B92CA4FE0FC0FE01E80DF11D8081803352
:1012900021F49A2D997EA92E09C0A2FE06C0B3940E
:1012A000B39404C08A2D867809F0B394A3FC11C0CE
:1012B000A0FE06C0B21488F4280C922C9B180EC015
:1012C000B21460F4B60180E290E00E94CD09B394BC
:1012D000F7CFB21418F42B1802C0982C212CA4FEBE
:1012E00010C0B60180E390E00E94CD09A2FE17C0B5
:1012F000A1FC03C088E790E002C088E590E0B60159
:101300000CC08A2D867859F0A1FE02C08BE201C084
:1013100080E2A7FC8DE2B60190E00E94CD0989141D
:1013200038F4B60180E390E00E94CD099A94F7CF9B
:101330008A94F301E80DF11D8081B60190E00E94CE
:10134000CD098110F5CF222009F442CEB60180E20A
:1013500090E00E94CD092A94F6CFF601868197810C
:1013600002C08FEF9FEF2B96E2E10C94830AFC0101
:101370000590615070400110D8F7809590958E0FC0
:101380009F1F0895FC016150704001900110D8F733
:10139000809590958E0F9F1F08950F931F93CF9365
:1013A000DF93FB01238121FD03C08FEF9FEF2CC052
:1013B00022FF16C046815781248135814217530789
:1013C00044F4A081B1819D012F5F3F4F3183208381
:1013D0008C93268137812F5F3F4F3783268314C03C
:1013E0008B01EC01FB010084F185E02D0995892B2F
:1013F000E1F6D80116968D919C9117970196179654
:101400009C938E931697CE01DF91CF911F910F91F0
:101410000895FA01AA27283051F1203181F1E8948A
:101420006F936E7F6E5F7F4F8F4F9F4FAF4FB1E0D7
:101430003ED0B4E03CD0670F781F891F9A1FA11DD2
:10144000680F791F8A1F911DA11D6A0F711D811DD3
:10145000911DA11D20D009F468943F912AE0269F98
:1014600011243019305D3193DEF6CF010895462FF7
:101470004770405D4193B3E00FD0C9F7F6CF462FD8
:101480004F70405D4A3318F0495D31FD4052419341
:1014900002D0A9F7EACFB4E0A695979587957795FE
:1014A0006795BA95C9F700976105710508959B0185
:1014B000AC010A2E06945795479537952795BA950E
:1014C000C9F7620F731F841F951FA01D08952F92E7
:1014D0003F924F925F926F927F928F929F92AF92C4
:1014E000BF92CF92DF92EF92FF920F931F93CF9311
:1014F000DF93CDB7DEB7CA1BDB0B0FB6F894DEBFA8
:101500000FBECDBF09942A88398848885F846E84CD
:101510007D848C849B84AA84B984C884DF80EE8017
:10152000FD800C811B81AA81B981CE0FD11D0FB620
:10153000F894DEBF0FBECDBFED010895F894FFCF44
:101540000102010101000002000100050C00000081
:101550000000030302506C6561736520656E74655D
:101560007220612076616C696420627574746F6E9C
:101570002070696E206E756D6265722100506C6519
:1015800061736520656E74657220612076616C6997
:101590006420627574746F6E20706F7274206E7543
:1015A0006D6265722100506C6561736520656E74B3
:1015B000657220612076616C69642065787465725B
:1015C0006E616C20696E74657272757074206964E6
:1015D0002100506C6561736520656E7465722061D1
:1015E0002076616C69642065787465726E616C2028
:1015F000696E746572727570742073656E736520A0
:10160000636F6E74726F6C2100506C65617365203E
:10161000656E74657220612076616C696420636117
:10162000727320477265656E206C65642070696E08
:10163000206E756D6265722100506C656173652066
:10164000656E74657220612076616C6964206361E7
:10165000727320477265656E206C656420706F72CE
:1016600074206E756D6265722100506C65617365E2
:1016700020656E74657220612076616C69642063F8
:101680006172732079656C6C6F77206C6564207073
:10169000696E206E756D6265722100506C656173B4
:1016A0006520656E74657220612076616C696420C6
:1016B000636172732079656C6C6F77206C65642050
:1016C000706F7274206E756D6265722100506C656A
:1016D00061736520656E74657220612076616C6946
:1016E00064206361727320726564206C656420708D
:1016F000696E206E756D6265722100506C65617354
:101700006520656E74657220612076616C69642065
:101710006361727320726564206C656420706F72FF
:1017200074206E756D6265722100506C6561736521
:1017300020656E74657220612076616C696420702A
:1017400065646573747269616E7320477265656E56
:10175000206C65642070696E206E756D6265722103
:1017600000506C6561736520656E74657220612040
:1017700076616C6964207065646573747269616E0A
:101780007320477265656E206C656420706F72749B
:10179000206E756D6265722100506C656173652005
:1017A000656E74657220612076616C696420706575
:1017B000646573747269616E732079656C6C6F77A0
:1017C000206C65642070696E206E756D6265722193
:1017D00000506C6561736520656E746572206120D0
:1017E00076616C6964207065646573747269616E9A
:1017F000732079656C6C6F77206C656420706F72F4
:1018000074206E756D6265722100506C6561736540
:1018100020656E74657220612076616C6964207049
:1018200065646573747269616E7320726564206C9F
:1018300065642070696E206E756D6265722100505E
:101840006C6561736520656E7465722061207661D8
:101850006C6964207065646573747269616E73206D
:10186000726564206C656420706F7274206E756D93
:101870006265722100506C6561736520656E7465E8
:101880007220612076616C69642074696D657220D4
:1018900069642100506C6561736520656E746572C2
:1018A00020612076616C69642074696D6572206DB9
:1018B0006F64652100506C6561736520656E7465A9
:1018C0007220612076616C69642074696D65722094
:1018D0007072657363616C65722100506C65617331
:1018E0006520656E74657220612076616C69642084
:1018F00074696D657220696E697469616C207661C6
:101900006C7565202100506C6561736520656E748F
:10191000657220612076616C69642074696D6572FE
:1019200020636F6D706172652076616C7565210052
:00000001FF
